{
  "_format": "hh-sol-artifact-1",
  "contractName": "Loan",
  "sourceName": "contracts/Loans.sol",
  "abi": [
    {
      "inputs": [],
      "stateMutability": "payable",
      "type": "constructor"
    },
    {
      "inputs": [
        {
          "internalType": "address",
          "name": "",
          "type": "address"
        },
        {
          "internalType": "bytes32",
          "name": "",
          "type": "bytes32"
        }
      ],
      "name": "balances",
      "outputs": [
        {
          "internalType": "uint256",
          "name": "",
          "type": "uint256"
        }
      ],
      "stateMutability": "view",
      "type": "function"
    },
    {
      "inputs": [
        {
          "internalType": "uint256",
          "name": "_positionId",
          "type": "uint256"
        },
        {
          "internalType": "uint256",
          "name": "payBack",
          "type": "uint256"
        },
        {
          "internalType": "bytes32",
          "name": "payBackSymbol",
          "type": "bytes32"
        }
      ],
      "name": "closePosition",
      "outputs": [
        {
          "internalType": "bool",
          "name": "",
          "type": "bool"
        }
      ],
      "stateMutability": "nonpayable",
      "type": "function"
    },
    {
      "inputs": [],
      "name": "currentPositionID",
      "outputs": [
        {
          "internalType": "uint256",
          "name": "",
          "type": "uint256"
        }
      ],
      "stateMutability": "view",
      "type": "function"
    },
    {
      "inputs": [
        {
          "internalType": "uint256",
          "name": "amount",
          "type": "uint256"
        },
        {
          "internalType": "bytes32",
          "name": "symbol",
          "type": "bytes32"
        }
      ],
      "name": "depositTokens",
      "outputs": [],
      "stateMutability": "nonpayable",
      "type": "function"
    },
    {
      "inputs": [
        {
          "internalType": "uint256",
          "name": "_positionId",
          "type": "uint256"
        }
      ],
      "name": "getPositionById",
      "outputs": [
        {
          "components": [
            {
              "internalType": "uint256",
              "name": "positionID",
              "type": "uint256"
            },
            {
              "internalType": "address",
              "name": "walletAddress",
              "type": "address"
            },
            {
              "internalType": "uint256",
              "name": "weiStaked",
              "type": "uint256"
            },
            {
              "internalType": "bytes32",
              "name": "sentSymbol",
              "type": "bytes32"
            },
            {
              "internalType": "uint256",
              "name": "sentValue",
              "type": "uint256"
            },
            {
              "internalType": "bool",
              "name": "opened",
              "type": "bool"
            }
          ],
          "internalType": "struct Loan.Position",
          "name": "",
          "type": "tuple"
        }
      ],
      "stateMutability": "view",
      "type": "function"
    },
    {
      "inputs": [
        {
          "internalType": "address",
          "name": "_wallet",
          "type": "address"
        }
      ],
      "name": "getPositionIdsForAddress",
      "outputs": [
        {
          "internalType": "uint256[]",
          "name": "",
          "type": "uint256[]"
        }
      ],
      "stateMutability": "view",
      "type": "function"
    },
    {
      "inputs": [
        {
          "internalType": "bytes32",
          "name": "symbol",
          "type": "bytes32"
        }
      ],
      "name": "getTokenBalance",
      "outputs": [
        {
          "internalType": "uint256",
          "name": "",
          "type": "uint256"
        }
      ],
      "stateMutability": "view",
      "type": "function"
    },
    {
      "inputs": [],
      "name": "getWhitelistedSymbols",
      "outputs": [
        {
          "internalType": "bytes32[]",
          "name": "",
          "type": "bytes32[]"
        }
      ],
      "stateMutability": "view",
      "type": "function"
    },
    {
      "inputs": [
        {
          "internalType": "bytes32",
          "name": "symbol",
          "type": "bytes32"
        }
      ],
      "name": "getWhitelistedTokenAddress",
      "outputs": [
        {
          "internalType": "address",
          "name": "",
          "type": "address"
        }
      ],
      "stateMutability": "view",
      "type": "function"
    },
    {
      "inputs": [
        {
          "internalType": "address",
          "name": "",
          "type": "address"
        },
        {
          "internalType": "uint256",
          "name": "",
          "type": "uint256"
        }
      ],
      "name": "positionIdByAddress",
      "outputs": [
        {
          "internalType": "uint256",
          "name": "",
          "type": "uint256"
        }
      ],
      "stateMutability": "view",
      "type": "function"
    },
    {
      "inputs": [
        {
          "internalType": "uint256",
          "name": "",
          "type": "uint256"
        }
      ],
      "name": "positions",
      "outputs": [
        {
          "internalType": "uint256",
          "name": "positionID",
          "type": "uint256"
        },
        {
          "internalType": "address",
          "name": "walletAddress",
          "type": "address"
        },
        {
          "internalType": "uint256",
          "name": "weiStaked",
          "type": "uint256"
        },
        {
          "internalType": "bytes32",
          "name": "sentSymbol",
          "type": "bytes32"
        },
        {
          "internalType": "uint256",
          "name": "sentValue",
          "type": "uint256"
        },
        {
          "internalType": "bool",
          "name": "opened",
          "type": "bool"
        }
      ],
      "stateMutability": "view",
      "type": "function"
    },
    {
      "inputs": [
        {
          "internalType": "bytes32",
          "name": "_symbol",
          "type": "bytes32"
        },
        {
          "internalType": "uint256",
          "name": "_valueSent",
          "type": "uint256"
        }
      ],
      "name": "stakeEther",
      "outputs": [],
      "stateMutability": "payable",
      "type": "function"
    },
    {
      "inputs": [
        {
          "internalType": "bytes32",
          "name": "symbol",
          "type": "bytes32"
        },
        {
          "internalType": "address",
          "name": "tokenAddress",
          "type": "address"
        }
      ],
      "name": "whitelistToken",
      "outputs": [],
      "stateMutability": "nonpayable",
      "type": "function"
    },
    {
      "inputs": [
        {
          "internalType": "uint256",
          "name": "",
          "type": "uint256"
        }
      ],
      "name": "whitelistedSymbols",
      "outputs": [
        {
          "internalType": "bytes32",
          "name": "",
          "type": "bytes32"
        }
      ],
      "stateMutability": "view",
      "type": "function"
    },
    {
      "inputs": [
        {
          "internalType": "bytes32",
          "name": "",
          "type": "bytes32"
        }
      ],
      "name": "whitelistedTokens",
      "outputs": [
        {
          "internalType": "address",
          "name": "",
          "type": "address"
        }
      ],
      "stateMutability": "view",
      "type": "function"
    },
    {
      "inputs": [
        {
          "internalType": "uint256",
          "name": "amount",
          "type": "uint256"
        }
      ],
      "name": "withdrawEther",
      "outputs": [],
      "stateMutability": "nonpayable",
      "type": "function"
    },
    {
      "inputs": [
        {
          "internalType": "uint256",
          "name": "amount",
          "type": "uint256"
        },
        {
          "internalType": "bytes32",
          "name": "symbol",
          "type": "bytes32"
        }
      ],
      "name": "withdrawTokens",
      "outputs": [],
      "stateMutability": "nonpayable",
      "type": "function"
    },
    {
      "stateMutability": "payable",
      "type": "receive"
    }
  ],
  "bytecode": "0x6080604052670de0b6b3a7640000600455336000806101000a81548173ffffffffffffffffffffffffffffffffffffffff021916908373ffffffffffffffffffffffffffffffffffffffff1602179055506000600b81905550611c31806100676000396000f3fe6080604052600436106101025760003560e01c806388db6ac611610095578063a096366011610064578063a0963660146103f5578063aa3d9a1514610432578063b838ec861461046f578063d15b223e146104ac578063e8812788146104d557610190565b806388db6ac6146103225780638f97994b1461035f57806394fcf07b1461038857806399fbab88146103b357610190565b806340d98a44116100d157806340d98a44146102615780634762b9761461029e5780634b1e4aa5146102db5780638673b36b1461030657610190565b8063069fdaae146101955780631f14df69146101be5780633bed33ce146101fb5780634088f2041461022457610190565b366101905734600360003373ffffffffffffffffffffffffffffffffffffffff1673ffffffffffffffffffffffffffffffffffffffff16815260200190815260200160002060007f4574680000000000000000000000000000000000000000000000000000000000815260200190815260200160002060008282546101879190611249565b92505081905550005b600080fd5b3480156101a157600080fd5b506101bc60048036038101906101b79190611338565b610512565b005b3480156101ca57600080fd5b506101e560048036038101906101e09190611378565b61061f565b6040516101f291906113c7565b60405180910390f35b34801561020757600080fd5b50610222600480360381019061021d919061140e565b610644565b005b34801561023057600080fd5b5061024b6004803603810190610246919061143b565b6107ea565b60405161025891906113c7565b60405180910390f35b34801561026d57600080fd5b506102886004803603810190610283919061147b565b61081b565b6040516102959190611566565b60405180910390f35b3480156102aa57600080fd5b506102c560048036038101906102c0919061140e565b6108b2565b6040516102d29190611597565b60405180910390f35b3480156102e757600080fd5b506102f06108d6565b6040516102fd9190611670565b60405180910390f35b610320600480360381019061031b9190611692565b61092e565b005b34801561032e57600080fd5b50610349600480360381019061034491906116d2565b610aa3565b60405161035691906113c7565b60405180910390f35b34801561036b57600080fd5b50610386600480360381019061038191906116ff565b610afd565b005b34801561039457600080fd5b5061039d610cbc565b6040516103aa91906113c7565b60405180910390f35b3480156103bf57600080fd5b506103da60048036038101906103d5919061140e565b610cc2565b6040516103ec96959493929190611769565b60405180910390f35b34801561040157600080fd5b5061041c600480360381019061041791906117ca565b610d2b565b604051610429919061181d565b60405180910390f35b34801561043e57600080fd5b50610459600480360381019061045491906116d2565b610f3e565b6040516104669190611838565b60405180910390f35b34801561047b57600080fd5b506104966004803603810190610491919061140e565b610f71565b6040516104a391906118ec565b60405180910390f35b3480156104b857600080fd5b506104d360048036038101906104ce91906116ff565b611037565b005b3480156104e157600080fd5b506104fc60048036038101906104f791906116d2565b611182565b6040516105099190611838565b60405180910390f35b60008054906101000a900473ffffffffffffffffffffffffffffffffffffffff1673ffffffffffffffffffffffffffffffffffffffff163373ffffffffffffffffffffffffffffffffffffffff16146105a0576040517f08c379a000000000000000000000000000000000000000000000000000000000815260040161059790611964565b60405180910390fd5b6001829080600181540180825580915050600190039060005260206000200160009091909190915055806002600084815260200190815260200160002060006101000a81548173ffffffffffffffffffffffffffffffffffffffff021916908373ffffffffffffffffffffffffffffffffffffffff1602179055505050565b6003602052816000526040600020602052806000526040600020600091509150505481565b80600360003373ffffffffffffffffffffffffffffffffffffffff1673ffffffffffffffffffffffffffffffffffffffff16815260200190815260200160002060007f457468000000000000000000000000000000000000000000000000000000000081526020019081526020016000205410156106f7576040517f08c379a00000000000000000000000000000000000000000000000000000000081526004016106ee906119d0565b60405180910390fd5b80600360003373ffffffffffffffffffffffffffffffffffffffff1673ffffffffffffffffffffffffffffffffffffffff16815260200190815260200160002060007f45746800000000000000000000000000000000000000000000000000000000008152602001908152602001600020600082825461077791906119f0565b925050819055503373ffffffffffffffffffffffffffffffffffffffff16816040516107a290611a55565b60006040518083038185875af1925050503d80600081146107df576040519150601f19603f3d011682016040523d82523d6000602084013e6107e4565b606091505b50505050565b600d602052816000526040600020818154811061080657600080fd5b90600052602060002001600091509150505481565b6060600d60008373ffffffffffffffffffffffffffffffffffffffff1673ffffffffffffffffffffffffffffffffffffffff1681526020019081526020016000208054806020026020016040519081016040528092919081815260200182805480156108a657602002820191906000526020600020905b815481526020019060010190808311610892575b50505050509050919050565b600181815481106108c257600080fd5b906000526020600020016000915090505481565b6060600180548060200260200160405190810160405280929190818152602001828054801561092457602002820191906000526020600020905b815481526020019060010190808311610910575b5050505050905090565b6040518060c00160405280600b5481526020013373ffffffffffffffffffffffffffffffffffffffff16815260200134815260200183815260200182815260200160011515815250600c6000600b5481526020019081526020016000206000820151816000015560208201518160010160006101000a81548173ffffffffffffffffffffffffffffffffffffffff021916908373ffffffffffffffffffffffffffffffffffffffff16021790555060408201518160020155606082015181600301556080820151816004015560a08201518160050160006101000a81548160ff021916908315150217905550905050600d60003373ffffffffffffffffffffffffffffffffffffffff1673ffffffffffffffffffffffffffffffffffffffff168152602001908152602001600020600b5490806001815401808255809150506001900390600052602060002001600090919091909150556001600b6000828254610a989190611249565b925050819055505050565b6000600360003373ffffffffffffffffffffffffffffffffffffffff1673ffffffffffffffffffffffffffffffffffffffff1681526020019081526020016000206000838152602001908152602001600020549050919050565b81600360003373ffffffffffffffffffffffffffffffffffffffff1673ffffffffffffffffffffffffffffffffffffffff1681526020019081526020016000206000838152602001908152602001600020541015610b90576040517f08c379a0000000000000000000000000000000000000000000000000000000008152600401610b87906119d0565b60405180910390fd5b81600360003373ffffffffffffffffffffffffffffffffffffffff1673ffffffffffffffffffffffffffffffffffffffff16815260200190815260200160002060008381526020019081526020016000206000828254610bf091906119f0565b925050819055506002600082815260200190815260200160002060009054906101000a900473ffffffffffffffffffffffffffffffffffffffff1673ffffffffffffffffffffffffffffffffffffffff1663a9059cbb33846040518363ffffffff1660e01b8152600401610c65929190611a6a565b602060405180830381600087803b158015610c7f57600080fd5b505af1158015610c93573d6000803e3d6000fd5b505050506040513d601f19601f82011682018060405250810190610cb79190611abf565b505050565b600b5481565b600c6020528060005260406000206000915090508060000154908060010160009054906101000a900473ffffffffffffffffffffffffffffffffffffffff16908060020154908060030154908060040154908060050160009054906101000a900460ff16905086565b60003373ffffffffffffffffffffffffffffffffffffffff16600c600086815260200190815260200160002060010160009054906101000a900473ffffffffffffffffffffffffffffffffffffffff1673ffffffffffffffffffffffffffffffffffffffff1614610dd1576040517f08c379a0000000000000000000000000000000000000000000000000000000008152600401610dc890611b38565b60405180910390fd5b60011515600c600086815260200190815260200160002060050160009054906101000a900460ff16151514610e3b576040517f08c379a0000000000000000000000000000000000000000000000000000000008152600401610e3290611ba4565b60405180910390fd5b600c6000858152602001908152602001600020600401548310158015610e765750600c60008581526020019081526020016000206003015482145b15610f32576000600c600086815260200190815260200160002060050160006101000a81548160ff0219169083151502179055503373ffffffffffffffffffffffffffffffffffffffff16600c600086815260200190815260200160002060020154604051610ee490611a55565b60006040518083038185875af1925050503d8060008114610f21576040519150601f19603f3d011682016040523d82523d6000602084013e610f26565b606091505b50505060019050610f37565b600090505b9392505050565b60026020528060005260406000206000915054906101000a900473ffffffffffffffffffffffffffffffffffffffff1681565b610f796111bf565b600c60008381526020019081526020016000206040518060c0016040529081600082015481526020016001820160009054906101000a900473ffffffffffffffffffffffffffffffffffffffff1673ffffffffffffffffffffffffffffffffffffffff1673ffffffffffffffffffffffffffffffffffffffff1681526020016002820154815260200160038201548152602001600482015481526020016005820160009054906101000a900460ff1615151515815250509050919050565b81600360003373ffffffffffffffffffffffffffffffffffffffff1673ffffffffffffffffffffffffffffffffffffffff168152602001908152602001600020600083815260200190815260200160002060008282546110979190611249565b9250508190555081600c6000600b548152602001908152602001600020600201819055506002600082815260200190815260200160002060009054906101000a900473ffffffffffffffffffffffffffffffffffffffff1673ffffffffffffffffffffffffffffffffffffffff166323b872dd3330856040518463ffffffff1660e01b815260040161112b93929190611bc4565b602060405180830381600087803b15801561114557600080fd5b505af1158015611159573d6000803e3d6000fd5b505050506040513d601f19601f8201168201806040525081019061117d9190611abf565b505050565b60006002600083815260200190815260200160002060009054906101000a900473ffffffffffffffffffffffffffffffffffffffff169050919050565b6040518060c0016040528060008152602001600073ffffffffffffffffffffffffffffffffffffffff1681526020016000815260200160008019168152602001600081526020016000151581525090565b6000819050919050565b7f4e487b7100000000000000000000000000000000000000000000000000000000600052601160045260246000fd5b600061125482611210565b915061125f83611210565b9250827fffffffffffffffffffffffffffffffffffffffffffffffffffffffffffffffff038211156112945761129361121a565b5b828201905092915050565b600080fd5b6000819050919050565b6112b7816112a4565b81146112c257600080fd5b50565b6000813590506112d4816112ae565b92915050565b600073ffffffffffffffffffffffffffffffffffffffff82169050919050565b6000611305826112da565b9050919050565b611315816112fa565b811461132057600080fd5b50565b6000813590506113328161130c565b92915050565b6000806040838503121561134f5761134e61129f565b5b600061135d858286016112c5565b925050602061136e85828601611323565b9150509250929050565b6000806040838503121561138f5761138e61129f565b5b600061139d85828601611323565b92505060206113ae858286016112c5565b9150509250929050565b6113c181611210565b82525050565b60006020820190506113dc60008301846113b8565b92915050565b6113eb81611210565b81146113f657600080fd5b50565b600081359050611408816113e2565b92915050565b6000602082840312156114245761142361129f565b5b6000611432848285016113f9565b91505092915050565b600080604083850312156114525761145161129f565b5b600061146085828601611323565b9250506020611471858286016113f9565b9150509250929050565b6000602082840312156114915761149061129f565b5b600061149f84828501611323565b91505092915050565b600081519050919050565b600082825260208201905092915050565b6000819050602082019050919050565b6114dd81611210565b82525050565b60006114ef83836114d4565b60208301905092915050565b6000602082019050919050565b6000611513826114a8565b61151d81856114b3565b9350611528836114c4565b8060005b8381101561155957815161154088826114e3565b975061154b836114fb565b92505060018101905061152c565b5085935050505092915050565b600060208201905081810360008301526115808184611508565b905092915050565b611591816112a4565b82525050565b60006020820190506115ac6000830184611588565b92915050565b600081519050919050565b600082825260208201905092915050565b6000819050602082019050919050565b6115e7816112a4565b82525050565b60006115f983836115de565b60208301905092915050565b6000602082019050919050565b600061161d826115b2565b61162781856115bd565b9350611632836115ce565b8060005b8381101561166357815161164a88826115ed565b975061165583611605565b925050600181019050611636565b5085935050505092915050565b6000602082019050818103600083015261168a8184611612565b905092915050565b600080604083850312156116a9576116a861129f565b5b60006116b7858286016112c5565b92505060206116c8858286016113f9565b9150509250929050565b6000602082840312156116e8576116e761129f565b5b60006116f6848285016112c5565b91505092915050565b600080604083850312156117165761171561129f565b5b6000611724858286016113f9565b9250506020611735858286016112c5565b9150509250929050565b611748816112fa565b82525050565b60008115159050919050565b6117638161174e565b82525050565b600060c08201905061177e60008301896113b8565b61178b602083018861173f565b61179860408301876113b8565b6117a56060830186611588565b6117b260808301856113b8565b6117bf60a083018461175a565b979650505050505050565b6000806000606084860312156117e3576117e261129f565b5b60006117f1868287016113f9565b9350506020611802868287016113f9565b9250506040611813868287016112c5565b9150509250925092565b6000602082019050611832600083018461175a565b92915050565b600060208201905061184d600083018461173f565b92915050565b61185c816112fa565b82525050565b61186b8161174e565b82525050565b60c08201600082015161188760008501826114d4565b50602082015161189a6020850182611853565b5060408201516118ad60408501826114d4565b5060608201516118c060608501826115de565b5060808201516118d360808501826114d4565b5060a08201516118e660a0850182611862565b50505050565b600060c0820190506119016000830184611871565b92915050565b600082825260208201905092915050565b7f546869732066756e6374696f6e206973206e6f74207075626c69632100000000600082015250565b600061194e601c83611907565b915061195982611918565b602082019050919050565b6000602082019050818103600083015261197d81611941565b9050919050565b7f496e73756666696369656e742066756e64730000000000000000000000000000600082015250565b60006119ba601283611907565b91506119c582611984565b602082019050919050565b600060208201905081810360008301526119e9816119ad565b9050919050565b60006119fb82611210565b9150611a0683611210565b925082821015611a1957611a1861121a565b5b828203905092915050565b600081905092915050565b50565b6000611a3f600083611a24565b9150611a4a82611a2f565b600082019050919050565b6000611a6082611a32565b9150819050919050565b6000604082019050611a7f600083018561173f565b611a8c60208301846113b8565b9392505050565b611a9c8161174e565b8114611aa757600080fd5b50565b600081519050611ab981611a93565b92915050565b600060208284031215611ad557611ad461129f565b5b6000611ae384828501611aaa565b91505092915050565b7f4f6e6c79206f776e65722063616e20636c6f736520706f736974696f6e000000600082015250565b6000611b22601d83611907565b9150611b2d82611aec565b602082019050919050565b60006020820190508181036000830152611b5181611b15565b9050919050565b7f506f736974696f6e20697320616c726561647920636c6f736564000000000000600082015250565b6000611b8e601a83611907565b9150611b9982611b58565b602082019050919050565b60006020820190508181036000830152611bbd81611b81565b9050919050565b6000606082019050611bd9600083018661173f565b611be6602083018561173f565b611bf360408301846113b8565b94935050505056fea2646970667358221220e46bda00098e0b96bc58dbd7d20e84065dca763ce70c2c89ba13179385cc7e0164736f6c63430008090033",
  "linkReferences": {},
  "deployedLinkReferences": {}
}