{
  "_format": "hh-sol-artifact-1",
  "contractName": "Loan",
  "sourceName": "contracts/Loans.sol",
  "abi": [
    {
      "inputs": [],
      "stateMutability": "payable",
      "type": "constructor"
    },
    {
      "inputs": [
        {
          "internalType": "address",
          "name": "",
          "type": "address"
        },
        {
          "internalType": "bytes32",
          "name": "",
          "type": "bytes32"
        }
      ],
      "name": "balances",
      "outputs": [
        {
          "internalType": "uint256",
          "name": "",
          "type": "uint256"
        }
      ],
      "stateMutability": "view",
      "type": "function"
    },
    {
      "inputs": [
        {
          "internalType": "uint256",
          "name": "_positionId",
          "type": "uint256"
        },
        {
          "internalType": "uint256",
          "name": "payBack",
          "type": "uint256"
        },
        {
          "internalType": "bytes32",
          "name": "payBackSymbol",
          "type": "bytes32"
        }
      ],
      "name": "closePosition",
      "outputs": [
        {
          "internalType": "bool",
          "name": "",
          "type": "bool"
        }
      ],
      "stateMutability": "nonpayable",
      "type": "function"
    },
    {
      "inputs": [],
      "name": "currentPositionID",
      "outputs": [
        {
          "internalType": "uint256",
          "name": "",
          "type": "uint256"
        }
      ],
      "stateMutability": "view",
      "type": "function"
    },
    {
      "inputs": [
        {
          "internalType": "uint256",
          "name": "amount",
          "type": "uint256"
        },
        {
          "internalType": "bytes32",
          "name": "symbol",
          "type": "bytes32"
        }
      ],
      "name": "depositTokens",
      "outputs": [],
      "stateMutability": "nonpayable",
      "type": "function"
    },
    {
      "inputs": [
        {
          "internalType": "uint256",
          "name": "_positionId",
          "type": "uint256"
        }
      ],
      "name": "getPositionById",
      "outputs": [
        {
          "components": [
            {
              "internalType": "uint256",
              "name": "positionID",
              "type": "uint256"
            },
            {
              "internalType": "address",
              "name": "walletAddress",
              "type": "address"
            },
            {
              "internalType": "uint256",
              "name": "weiStaked",
              "type": "uint256"
            },
            {
              "internalType": "bytes32",
              "name": "sentSymbol",
              "type": "bytes32"
            },
            {
              "internalType": "uint256",
              "name": "sentValue",
              "type": "uint256"
            },
            {
              "internalType": "bool",
              "name": "opened",
              "type": "bool"
            }
          ],
          "internalType": "struct Loan.Position",
          "name": "",
          "type": "tuple"
        }
      ],
      "stateMutability": "view",
      "type": "function"
    },
    {
      "inputs": [
        {
          "internalType": "address",
          "name": "_wallet",
          "type": "address"
        }
      ],
      "name": "getPositionIdsForAddress",
      "outputs": [
        {
          "internalType": "uint256[]",
          "name": "",
          "type": "uint256[]"
        }
      ],
      "stateMutability": "view",
      "type": "function"
    },
    {
      "inputs": [
        {
          "internalType": "bytes32",
          "name": "symbol",
          "type": "bytes32"
        }
      ],
      "name": "getTokenBalance",
      "outputs": [
        {
          "internalType": "uint256",
          "name": "",
          "type": "uint256"
        }
      ],
      "stateMutability": "view",
      "type": "function"
    },
    {
      "inputs": [],
      "name": "getWhitelistedSymbols",
      "outputs": [
        {
          "internalType": "bytes32[]",
          "name": "",
          "type": "bytes32[]"
        }
      ],
      "stateMutability": "view",
      "type": "function"
    },
    {
      "inputs": [
        {
          "internalType": "bytes32",
          "name": "symbol",
          "type": "bytes32"
        }
      ],
      "name": "getWhitelistedTokenAddress",
      "outputs": [
        {
          "internalType": "address",
          "name": "",
          "type": "address"
        }
      ],
      "stateMutability": "view",
      "type": "function"
    },
    {
      "inputs": [
        {
          "internalType": "address",
          "name": "",
          "type": "address"
        },
        {
          "internalType": "uint256",
          "name": "",
          "type": "uint256"
        }
      ],
      "name": "positionIdByAddress",
      "outputs": [
        {
          "internalType": "uint256",
          "name": "",
          "type": "uint256"
        }
      ],
      "stateMutability": "view",
      "type": "function"
    },
    {
      "inputs": [
        {
          "internalType": "uint256",
          "name": "",
          "type": "uint256"
        }
      ],
      "name": "positions",
      "outputs": [
        {
          "internalType": "uint256",
          "name": "positionID",
          "type": "uint256"
        },
        {
          "internalType": "address",
          "name": "walletAddress",
          "type": "address"
        },
        {
          "internalType": "uint256",
          "name": "weiStaked",
          "type": "uint256"
        },
        {
          "internalType": "bytes32",
          "name": "sentSymbol",
          "type": "bytes32"
        },
        {
          "internalType": "uint256",
          "name": "sentValue",
          "type": "uint256"
        },
        {
          "internalType": "bool",
          "name": "opened",
          "type": "bool"
        }
      ],
      "stateMutability": "view",
      "type": "function"
    },
    {
      "inputs": [
        {
          "internalType": "uint256",
          "name": "_wei",
          "type": "uint256"
        }
      ],
      "name": "setWeiStaked",
      "outputs": [],
      "stateMutability": "nonpayable",
      "type": "function"
    },
    {
      "inputs": [
        {
          "internalType": "bytes32",
          "name": "_symbol",
          "type": "bytes32"
        },
        {
          "internalType": "uint256",
          "name": "_valueSent",
          "type": "uint256"
        }
      ],
      "name": "stakeEther",
      "outputs": [],
      "stateMutability": "payable",
      "type": "function"
    },
    {
      "inputs": [
        {
          "internalType": "bytes32",
          "name": "symbol",
          "type": "bytes32"
        },
        {
          "internalType": "address",
          "name": "tokenAddress",
          "type": "address"
        }
      ],
      "name": "whitelistToken",
      "outputs": [],
      "stateMutability": "nonpayable",
      "type": "function"
    },
    {
      "inputs": [
        {
          "internalType": "uint256",
          "name": "",
          "type": "uint256"
        }
      ],
      "name": "whitelistedSymbols",
      "outputs": [
        {
          "internalType": "bytes32",
          "name": "",
          "type": "bytes32"
        }
      ],
      "stateMutability": "view",
      "type": "function"
    },
    {
      "inputs": [
        {
          "internalType": "bytes32",
          "name": "",
          "type": "bytes32"
        }
      ],
      "name": "whitelistedTokens",
      "outputs": [
        {
          "internalType": "address",
          "name": "",
          "type": "address"
        }
      ],
      "stateMutability": "view",
      "type": "function"
    },
    {
      "inputs": [
        {
          "internalType": "uint256",
          "name": "amount",
          "type": "uint256"
        }
      ],
      "name": "withdrawEther",
      "outputs": [],
      "stateMutability": "nonpayable",
      "type": "function"
    },
    {
      "inputs": [
        {
          "internalType": "uint256",
          "name": "amount",
          "type": "uint256"
        },
        {
          "internalType": "bytes32",
          "name": "symbol",
          "type": "bytes32"
        }
      ],
      "name": "withdrawTokens",
      "outputs": [],
      "stateMutability": "nonpayable",
      "type": "function"
    },
    {
      "stateMutability": "payable",
      "type": "receive"
    }
  ],
  "bytecode": "0x6080604052670de0b6b3a7640000600455336000806101000a81548173ffffffffffffffffffffffffffffffffffffffff021916908373ffffffffffffffffffffffffffffffffffffffff1602179055506000600b81905550611c1a806100676000396000f3fe60806040526004361061010d5760003560e01c806388db6ac611610095578063a096366011610064578063a096366014610429578063aa3d9a1514610466578063b838ec86146104a3578063d15b223e146104e0578063e8812788146105095761019b565b806388db6ac6146103565780638f97994b1461039357806394fcf07b146103bc57806399fbab88146103e75761019b565b806340d98a44116100dc57806340d98a441461026c5780634762b976146102a95780634b1e4aa5146102e65780634cb9c921146103115780638673b36b1461033a5761019b565b8063069fdaae146101a05780631f14df69146101c95780633bed33ce146102065780634088f2041461022f5761019b565b3661019b5734600360003373ffffffffffffffffffffffffffffffffffffffff1673ffffffffffffffffffffffffffffffffffffffff16815260200190815260200160002060007f4574680000000000000000000000000000000000000000000000000000000000815260200190815260200160002060008282546101929190611232565b92505081905550005b600080fd5b3480156101ac57600080fd5b506101c760048036038101906101c29190611321565b610546565b005b3480156101d557600080fd5b506101f060048036038101906101eb9190611361565b610653565b6040516101fd91906113b0565b60405180910390f35b34801561021257600080fd5b5061022d600480360381019061022891906113f7565b610678565b005b34801561023b57600080fd5b5061025660048036038101906102519190611424565b61081e565b60405161026391906113b0565b60405180910390f35b34801561027857600080fd5b50610293600480360381019061028e9190611464565b61084f565b6040516102a0919061154f565b60405180910390f35b3480156102b557600080fd5b506102d060048036038101906102cb91906113f7565b6108e6565b6040516102dd9190611580565b60405180910390f35b3480156102f257600080fd5b506102fb61090a565b6040516103089190611659565b60405180910390f35b34801561031d57600080fd5b50610338600480360381019061033391906113f7565b610962565b005b610354600480360381019061034f919061167b565b610982565b005b34801561036257600080fd5b5061037d600480360381019061037891906116bb565b610af7565b60405161038a91906113b0565b60405180910390f35b34801561039f57600080fd5b506103ba60048036038101906103b591906116e8565b610b51565b005b3480156103c857600080fd5b506103d1610d10565b6040516103de91906113b0565b60405180910390f35b3480156103f357600080fd5b5061040e600480360381019061040991906113f7565b610d16565b60405161042096959493929190611752565b60405180910390f35b34801561043557600080fd5b50610450600480360381019061044b91906117b3565b610d7f565b60405161045d9190611806565b60405180910390f35b34801561047257600080fd5b5061048d600480360381019061048891906116bb565b610f44565b60405161049a9190611821565b60405180910390f35b3480156104af57600080fd5b506104ca60048036038101906104c591906113f7565b610f77565b6040516104d791906118d5565b60405180910390f35b3480156104ec57600080fd5b50610507600480360381019061050291906116e8565b61103d565b005b34801561051557600080fd5b50610530600480360381019061052b91906116bb565b61116b565b60405161053d9190611821565b60405180910390f35b60008054906101000a900473ffffffffffffffffffffffffffffffffffffffff1673ffffffffffffffffffffffffffffffffffffffff163373ffffffffffffffffffffffffffffffffffffffff16146105d4576040517f08c379a00000000000000000000000000000000000000000000000000000000081526004016105cb9061194d565b60405180910390fd5b6001829080600181540180825580915050600190039060005260206000200160009091909190915055806002600084815260200190815260200160002060006101000a81548173ffffffffffffffffffffffffffffffffffffffff021916908373ffffffffffffffffffffffffffffffffffffffff1602179055505050565b6003602052816000526040600020602052806000526040600020600091509150505481565b80600360003373ffffffffffffffffffffffffffffffffffffffff1673ffffffffffffffffffffffffffffffffffffffff16815260200190815260200160002060007f4574680000000000000000000000000000000000000000000000000000000000815260200190815260200160002054101561072b576040517f08c379a0000000000000000000000000000000000000000000000000000000008152600401610722906119b9565b60405180910390fd5b80600360003373ffffffffffffffffffffffffffffffffffffffff1673ffffffffffffffffffffffffffffffffffffffff16815260200190815260200160002060007f4574680000000000000000000000000000000000000000000000000000000000815260200190815260200160002060008282546107ab91906119d9565b925050819055503373ffffffffffffffffffffffffffffffffffffffff16816040516107d690611a3e565b60006040518083038185875af1925050503d8060008114610813576040519150601f19603f3d011682016040523d82523d6000602084013e610818565b606091505b50505050565b600d602052816000526040600020818154811061083a57600080fd5b90600052602060002001600091509150505481565b6060600d60008373ffffffffffffffffffffffffffffffffffffffff1673ffffffffffffffffffffffffffffffffffffffff1681526020019081526020016000208054806020026020016040519081016040528092919081815260200182805480156108da57602002820191906000526020600020905b8154815260200190600101908083116108c6575b50505050509050919050565b600181815481106108f657600080fd5b906000526020600020016000915090505481565b6060600180548060200260200160405190810160405280929190818152602001828054801561095857602002820191906000526020600020905b815481526020019060010190808311610944575b5050505050905090565b80600c6000600b5481526020019081526020016000206002018190555050565b6040518060c00160405280600b5481526020013373ffffffffffffffffffffffffffffffffffffffff16815260200134815260200183815260200182815260200160011515815250600c6000600b5481526020019081526020016000206000820151816000015560208201518160010160006101000a81548173ffffffffffffffffffffffffffffffffffffffff021916908373ffffffffffffffffffffffffffffffffffffffff16021790555060408201518160020155606082015181600301556080820151816004015560a08201518160050160006101000a81548160ff021916908315150217905550905050600d60003373ffffffffffffffffffffffffffffffffffffffff1673ffffffffffffffffffffffffffffffffffffffff168152602001908152602001600020600b5490806001815401808255809150506001900390600052602060002001600090919091909150556001600b6000828254610aec9190611232565b925050819055505050565b6000600360003373ffffffffffffffffffffffffffffffffffffffff1673ffffffffffffffffffffffffffffffffffffffff1681526020019081526020016000206000838152602001908152602001600020549050919050565b81600360003373ffffffffffffffffffffffffffffffffffffffff1673ffffffffffffffffffffffffffffffffffffffff1681526020019081526020016000206000838152602001908152602001600020541015610be4576040517f08c379a0000000000000000000000000000000000000000000000000000000008152600401610bdb906119b9565b60405180910390fd5b81600360003373ffffffffffffffffffffffffffffffffffffffff1673ffffffffffffffffffffffffffffffffffffffff16815260200190815260200160002060008381526020019081526020016000206000828254610c4491906119d9565b925050819055506002600082815260200190815260200160002060009054906101000a900473ffffffffffffffffffffffffffffffffffffffff1673ffffffffffffffffffffffffffffffffffffffff1663a9059cbb33846040518363ffffffff1660e01b8152600401610cb9929190611a53565b602060405180830381600087803b158015610cd357600080fd5b505af1158015610ce7573d6000803e3d6000fd5b505050506040513d601f19601f82011682018060405250810190610d0b9190611aa8565b505050565b600b5481565b600c6020528060005260406000206000915090508060000154908060010160009054906101000a900473ffffffffffffffffffffffffffffffffffffffff16908060020154908060030154908060040154908060050160009054906101000a900460ff16905086565b60003373ffffffffffffffffffffffffffffffffffffffff16600c600086815260200190815260200160002060010160009054906101000a900473ffffffffffffffffffffffffffffffffffffffff1673ffffffffffffffffffffffffffffffffffffffff1614610e25576040517f08c379a0000000000000000000000000000000000000000000000000000000008152600401610e1c90611b21565b60405180910390fd5b60011515600c600086815260200190815260200160002060050160009054906101000a900460ff16151514610e8f576040517f08c379a0000000000000000000000000000000000000000000000000000000008152600401610e8690611b8d565b60405180910390fd5b6000600c600086815260200190815260200160002060050160006101000a81548160ff0219169083151502179055503373ffffffffffffffffffffffffffffffffffffffff16600c600086815260200190815260200160002060020154604051610ef890611a3e565b60006040518083038185875af1925050503d8060008114610f35576040519150601f19603f3d011682016040523d82523d6000602084013e610f3a565b606091505b5050509392505050565b60026020528060005260406000206000915054906101000a900473ffffffffffffffffffffffffffffffffffffffff1681565b610f7f6111a8565b600c60008381526020019081526020016000206040518060c0016040529081600082015481526020016001820160009054906101000a900473ffffffffffffffffffffffffffffffffffffffff1673ffffffffffffffffffffffffffffffffffffffff1673ffffffffffffffffffffffffffffffffffffffff1681526020016002820154815260200160038201548152602001600482015481526020016005820160009054906101000a900460ff1615151515815250509050919050565b81600360003373ffffffffffffffffffffffffffffffffffffffff1673ffffffffffffffffffffffffffffffffffffffff1681526020019081526020016000206000838152602001908152602001600020600082825461109d9190611232565b925050819055506002600082815260200190815260200160002060009054906101000a900473ffffffffffffffffffffffffffffffffffffffff1673ffffffffffffffffffffffffffffffffffffffff166323b872dd3330856040518463ffffffff1660e01b815260040161111493929190611bad565b602060405180830381600087803b15801561112e57600080fd5b505af1158015611142573d6000803e3d6000fd5b505050506040513d601f19601f820116820180604052508101906111669190611aa8565b505050565b60006002600083815260200190815260200160002060009054906101000a900473ffffffffffffffffffffffffffffffffffffffff169050919050565b6040518060c0016040528060008152602001600073ffffffffffffffffffffffffffffffffffffffff1681526020016000815260200160008019168152602001600081526020016000151581525090565b6000819050919050565b7f4e487b7100000000000000000000000000000000000000000000000000000000600052601160045260246000fd5b600061123d826111f9565b9150611248836111f9565b9250827fffffffffffffffffffffffffffffffffffffffffffffffffffffffffffffffff0382111561127d5761127c611203565b5b828201905092915050565b600080fd5b6000819050919050565b6112a08161128d565b81146112ab57600080fd5b50565b6000813590506112bd81611297565b92915050565b600073ffffffffffffffffffffffffffffffffffffffff82169050919050565b60006112ee826112c3565b9050919050565b6112fe816112e3565b811461130957600080fd5b50565b60008135905061131b816112f5565b92915050565b6000806040838503121561133857611337611288565b5b6000611346858286016112ae565b92505060206113578582860161130c565b9150509250929050565b6000806040838503121561137857611377611288565b5b60006113868582860161130c565b9250506020611397858286016112ae565b9150509250929050565b6113aa816111f9565b82525050565b60006020820190506113c560008301846113a1565b92915050565b6113d4816111f9565b81146113df57600080fd5b50565b6000813590506113f1816113cb565b92915050565b60006020828403121561140d5761140c611288565b5b600061141b848285016113e2565b91505092915050565b6000806040838503121561143b5761143a611288565b5b60006114498582860161130c565b925050602061145a858286016113e2565b9150509250929050565b60006020828403121561147a57611479611288565b5b60006114888482850161130c565b91505092915050565b600081519050919050565b600082825260208201905092915050565b6000819050602082019050919050565b6114c6816111f9565b82525050565b60006114d883836114bd565b60208301905092915050565b6000602082019050919050565b60006114fc82611491565b611506818561149c565b9350611511836114ad565b8060005b8381101561154257815161152988826114cc565b9750611534836114e4565b925050600181019050611515565b5085935050505092915050565b6000602082019050818103600083015261156981846114f1565b905092915050565b61157a8161128d565b82525050565b60006020820190506115956000830184611571565b92915050565b600081519050919050565b600082825260208201905092915050565b6000819050602082019050919050565b6115d08161128d565b82525050565b60006115e283836115c7565b60208301905092915050565b6000602082019050919050565b60006116068261159b565b61161081856115a6565b935061161b836115b7565b8060005b8381101561164c57815161163388826115d6565b975061163e836115ee565b92505060018101905061161f565b5085935050505092915050565b6000602082019050818103600083015261167381846115fb565b905092915050565b6000806040838503121561169257611691611288565b5b60006116a0858286016112ae565b92505060206116b1858286016113e2565b9150509250929050565b6000602082840312156116d1576116d0611288565b5b60006116df848285016112ae565b91505092915050565b600080604083850312156116ff576116fe611288565b5b600061170d858286016113e2565b925050602061171e858286016112ae565b9150509250929050565b611731816112e3565b82525050565b60008115159050919050565b61174c81611737565b82525050565b600060c08201905061176760008301896113a1565b6117746020830188611728565b61178160408301876113a1565b61178e6060830186611571565b61179b60808301856113a1565b6117a860a0830184611743565b979650505050505050565b6000806000606084860312156117cc576117cb611288565b5b60006117da868287016113e2565b93505060206117eb868287016113e2565b92505060406117fc868287016112ae565b9150509250925092565b600060208201905061181b6000830184611743565b92915050565b60006020820190506118366000830184611728565b92915050565b611845816112e3565b82525050565b61185481611737565b82525050565b60c08201600082015161187060008501826114bd565b506020820151611883602085018261183c565b50604082015161189660408501826114bd565b5060608201516118a960608501826115c7565b5060808201516118bc60808501826114bd565b5060a08201516118cf60a085018261184b565b50505050565b600060c0820190506118ea600083018461185a565b92915050565b600082825260208201905092915050565b7f546869732066756e6374696f6e206973206e6f74207075626c69632100000000600082015250565b6000611937601c836118f0565b915061194282611901565b602082019050919050565b600060208201905081810360008301526119668161192a565b9050919050565b7f496e73756666696369656e742066756e64730000000000000000000000000000600082015250565b60006119a36012836118f0565b91506119ae8261196d565b602082019050919050565b600060208201905081810360008301526119d281611996565b9050919050565b60006119e4826111f9565b91506119ef836111f9565b925082821015611a0257611a01611203565b5b828203905092915050565b600081905092915050565b50565b6000611a28600083611a0d565b9150611a3382611a18565b600082019050919050565b6000611a4982611a1b565b9150819050919050565b6000604082019050611a686000830185611728565b611a7560208301846113a1565b9392505050565b611a8581611737565b8114611a9057600080fd5b50565b600081519050611aa281611a7c565b92915050565b600060208284031215611abe57611abd611288565b5b6000611acc84828501611a93565b91505092915050565b7f4f6e6c79206f776e65722063616e20636c6f736520706f736974696f6e000000600082015250565b6000611b0b601d836118f0565b9150611b1682611ad5565b602082019050919050565b60006020820190508181036000830152611b3a81611afe565b9050919050565b7f506f736974696f6e20697320616c726561647920636c6f736564000000000000600082015250565b6000611b77601a836118f0565b9150611b8282611b41565b602082019050919050565b60006020820190508181036000830152611ba681611b6a565b9050919050565b6000606082019050611bc26000830186611728565b611bcf6020830185611728565b611bdc60408301846113a1565b94935050505056fea2646970667358221220e4cbf9898a47f6ed3e0b31f7bd190fac331af0fd287f9da2378db6f46d0be85564736f6c63430008090033",
  "linkReferences": {},
  "deployedLinkReferences": {}
}