{
  "_format": "hh-sol-artifact-1",
  "contractName": "Staking",
  "sourceName": "contracts/Staking.sol",
  "abi": [
    {
      "inputs": [],
      "stateMutability": "payable",
      "type": "constructor"
    },
    {
      "inputs": [
        {
          "internalType": "uint256",
          "name": "_positionId",
          "type": "uint256"
        },
        {
          "internalType": "uint256",
          "name": "_newUnlockDate",
          "type": "uint256"
        }
      ],
      "name": "changeUnlockDate",
      "outputs": [],
      "stateMutability": "nonpayable",
      "type": "function"
    },
    {
      "inputs": [
        {
          "internalType": "uint256",
          "name": "_positionId",
          "type": "uint256"
        }
      ],
      "name": "closePosition",
      "outputs": [],
      "stateMutability": "nonpayable",
      "type": "function"
    },
    {
      "inputs": [],
      "name": "currentPositionID",
      "outputs": [
        {
          "internalType": "uint256",
          "name": "",
          "type": "uint256"
        }
      ],
      "stateMutability": "view",
      "type": "function"
    },
    {
      "inputs": [
        {
          "internalType": "uint256",
          "name": "_numDays",
          "type": "uint256"
        }
      ],
      "name": "getInterestRates",
      "outputs": [
        {
          "internalType": "uint256",
          "name": "",
          "type": "uint256"
        }
      ],
      "stateMutability": "view",
      "type": "function"
    },
    {
      "inputs": [],
      "name": "getLockPeriods",
      "outputs": [
        {
          "internalType": "uint256[]",
          "name": "",
          "type": "uint256[]"
        }
      ],
      "stateMutability": "view",
      "type": "function"
    },
    {
      "inputs": [
        {
          "internalType": "uint256",
          "name": "_positionId",
          "type": "uint256"
        }
      ],
      "name": "getPositionById",
      "outputs": [
        {
          "components": [
            {
              "internalType": "uint256",
              "name": "positionID",
              "type": "uint256"
            },
            {
              "internalType": "address",
              "name": "walletAddress",
              "type": "address"
            },
            {
              "internalType": "uint256",
              "name": "createdDate",
              "type": "uint256"
            },
            {
              "internalType": "uint256",
              "name": "unlockedDate",
              "type": "uint256"
            },
            {
              "internalType": "uint256",
              "name": "percentInterest",
              "type": "uint256"
            },
            {
              "internalType": "uint256",
              "name": "weiStaked",
              "type": "uint256"
            },
            {
              "internalType": "uint256",
              "name": "weiInterest",
              "type": "uint256"
            },
            {
              "internalType": "bool",
              "name": "opened",
              "type": "bool"
            }
          ],
          "internalType": "struct Staking.Position",
          "name": "",
          "type": "tuple"
        }
      ],
      "stateMutability": "view",
      "type": "function"
    },
    {
      "inputs": [
        {
          "internalType": "address",
          "name": "_wallet",
          "type": "address"
        }
      ],
      "name": "getPositionIdsForAddress",
      "outputs": [
        {
          "internalType": "uint256[]",
          "name": "",
          "type": "uint256[]"
        }
      ],
      "stateMutability": "view",
      "type": "function"
    },
    {
      "inputs": [
        {
          "internalType": "uint256",
          "name": "",
          "type": "uint256"
        }
      ],
      "name": "lockPeriods",
      "outputs": [
        {
          "internalType": "uint256",
          "name": "",
          "type": "uint256"
        }
      ],
      "stateMutability": "view",
      "type": "function"
    },
    {
      "inputs": [
        {
          "internalType": "uint256",
          "name": "_numDays",
          "type": "uint256"
        },
        {
          "internalType": "uint256",
          "name": "_basisPoints",
          "type": "uint256"
        }
      ],
      "name": "modifyLockPeriods",
      "outputs": [],
      "stateMutability": "nonpayable",
      "type": "function"
    },
    {
      "inputs": [],
      "name": "owner",
      "outputs": [
        {
          "internalType": "address",
          "name": "",
          "type": "address"
        }
      ],
      "stateMutability": "view",
      "type": "function"
    },
    {
      "inputs": [
        {
          "internalType": "address",
          "name": "",
          "type": "address"
        },
        {
          "internalType": "uint256",
          "name": "",
          "type": "uint256"
        }
      ],
      "name": "positionIdByAddress",
      "outputs": [
        {
          "internalType": "uint256",
          "name": "",
          "type": "uint256"
        }
      ],
      "stateMutability": "view",
      "type": "function"
    },
    {
      "inputs": [
        {
          "internalType": "uint256",
          "name": "",
          "type": "uint256"
        }
      ],
      "name": "positions",
      "outputs": [
        {
          "internalType": "uint256",
          "name": "positionID",
          "type": "uint256"
        },
        {
          "internalType": "address",
          "name": "walletAddress",
          "type": "address"
        },
        {
          "internalType": "uint256",
          "name": "createdDate",
          "type": "uint256"
        },
        {
          "internalType": "uint256",
          "name": "unlockedDate",
          "type": "uint256"
        },
        {
          "internalType": "uint256",
          "name": "percentInterest",
          "type": "uint256"
        },
        {
          "internalType": "uint256",
          "name": "weiStaked",
          "type": "uint256"
        },
        {
          "internalType": "uint256",
          "name": "weiInterest",
          "type": "uint256"
        },
        {
          "internalType": "bool",
          "name": "opened",
          "type": "bool"
        }
      ],
      "stateMutability": "view",
      "type": "function"
    },
    {
      "inputs": [
        {
          "internalType": "uint256",
          "name": "_numDays",
          "type": "uint256"
        }
      ],
      "name": "stakeEther",
      "outputs": [],
      "stateMutability": "payable",
      "type": "function"
    },
    {
      "inputs": [
        {
          "internalType": "uint256",
          "name": "",
          "type": "uint256"
        }
      ],
      "name": "tiers",
      "outputs": [
        {
          "internalType": "uint256",
          "name": "",
          "type": "uint256"
        }
      ],
      "stateMutability": "view",
      "type": "function"
    }
  ],
  "bytecode": "0x6080604052336000806101000a81548173ffffffffffffffffffffffffffffffffffffffff021916908373ffffffffffffffffffffffffffffffffffffffff16021790555060006009819055506102bc600c6000601e815260200190815260200160002081905550610384600c6000605a8152602001908152602001600020819055506104b0600c600060b4815260200190815260200160002081905550600d601e9080600181540180825580915050600190039060005260206000200160009091909190915055600d605a9080600181540180825580915050600190039060005260206000200160009091909190915055600d60b490806001815401808255809150506001900390600052602060002001600090919091909150556114ca8061012a6000396000f3fe6080604052600436106100dd5760003560e01c806395ad86e01161007f578063b0f0475b11610059578063b0f0475b14610301578063b838ec861461032a578063c7c9d05514610367578063e4f9084114610390576100dd565b806395ad86e01461025757806399fbab8814610294578063a126d601146102d8576100dd565b806341ee13be116100bb57806341ee13be146101995780634c8f2a78146101c45780638da5cb5b1461020157806394fcf07b1461022c576100dd565b8063039af9eb146100e25780634088f2041461011f57806340d98a441461015c575b600080fd5b3480156100ee57600080fd5b5061010960048036038101906101049190610dec565b6103ac565b60405161011691906111f1565b60405180910390f35b34801561012b57600080fd5b5061014660048036038101906101419190610db0565b6103c4565b60405161015391906111f1565b60405180910390f35b34801561016857600080fd5b50610183600480360381019061017e9190610d87565b6103f5565b6040516101909190611133565b60405180910390f35b3480156101a557600080fd5b506101ae61048c565b6040516101bb9190611133565b60405180910390f35b3480156101d057600080fd5b506101eb60048036038101906101e69190610dec565b6104e4565b6040516101f891906111f1565b60405180910390f35b34801561020d57600080fd5b50610216610508565b6040516102239190611118565b60405180910390f35b34801561023857600080fd5b5061024161052c565b60405161024e91906111f1565b60405180910390f35b34801561026357600080fd5b5061027e60048036038101906102799190610dec565b610532565b60405161028b91906111f1565b60405180910390f35b3480156102a057600080fd5b506102bb60048036038101906102b69190610dec565b61054f565b6040516102cf98979695949392919061120c565b60405180910390f35b3480156102e457600080fd5b506102ff60048036038101906102fa9190610dec565b6105c4565b005b34801561030d57600080fd5b5061032860048036038101906103239190610e15565b61084d565b005b34801561033657600080fd5b50610351600480360381019061034c9190610dec565b610920565b60405161035e91906111d5565b60405180910390f35b34801561037357600080fd5b5061038e60048036038101906103899190610e15565b6109fb565b005b6103aa60048036038101906103a59190610dec565b610aa8565b005b600c6020528060005260406000206000915090505481565b600b60205281600052604060002081815481106103e057600080fd5b90600052602060002001600091509150505481565b6060600b60008373ffffffffffffffffffffffffffffffffffffffff1673ffffffffffffffffffffffffffffffffffffffff16815260200190815260200160002080548060200260200160405190810160405280929190818152602001828054801561048057602002820191906000526020600020905b81548152602001906001019080831161046c575b50505050509050919050565b6060600d8054806020026020016040519081016040528092919081815260200182805480156104da57602002820191906000526020600020905b8154815260200190600101908083116104c6575b5050505050905090565b600d81815481106104f457600080fd5b906000526020600020016000915090505481565b60008054906101000a900473ffffffffffffffffffffffffffffffffffffffff1681565b60095481565b6000600c6000838152602001908152602001600020549050919050565b600a6020528060005260406000206000915090508060000154908060010160009054906101000a900473ffffffffffffffffffffffffffffffffffffffff16908060020154908060030154908060040154908060050154908060060154908060070160009054906101000a900460ff16905088565b3373ffffffffffffffffffffffffffffffffffffffff16600a600083815260200190815260200160002060010160009054906101000a900473ffffffffffffffffffffffffffffffffffffffff1673ffffffffffffffffffffffffffffffffffffffff1614610668576040517f08c379a000000000000000000000000000000000000000000000000000000000815260040161065f906111b5565b60405180910390fd5b60011515600a600083815260200190815260200160002060070160009054906101000a900460ff161515146106d2576040517f08c379a00000000000000000000000000000000000000000000000000000000081526004016106c990611175565b60405180910390fd5b6000600a600083815260200190815260200160002060070160006101000a81548160ff021916908315150217905550600a6000828152602001908152602001600020600301544211156107ca576000600a600083815260200190815260200160002060060154600a60008481526020019081526020016000206005015461075991906112df565b90503373ffffffffffffffffffffffffffffffffffffffff168160405161077f90611103565b60006040518083038185875af1925050503d80600081146107bc576040519150601f19603f3d011682016040523d82523d6000602084013e6107c1565b606091505b5050505061084a565b3373ffffffffffffffffffffffffffffffffffffffff16600a60008381526020019081526020016000206005015460405161080490611103565b60006040518083038185875af1925050503d8060008114610841576040519150601f19603f3d011682016040523d82523d6000602084013e610846565b606091505b5050505b50565b3373ffffffffffffffffffffffffffffffffffffffff1660008054906101000a900473ffffffffffffffffffffffffffffffffffffffff1673ffffffffffffffffffffffffffffffffffffffff16146108db576040517f08c379a00000000000000000000000000000000000000000000000000000000081526004016108d290611155565b60405180910390fd5b80600c600084815260200190815260200160002081905550600d8290806001815401808255809150506001900390600052602060002001600090919091909150555050565b610928610d00565b600a600083815260200190815260200160002060405180610100016040529081600082015481526020016001820160009054906101000a900473ffffffffffffffffffffffffffffffffffffffff1673ffffffffffffffffffffffffffffffffffffffff1673ffffffffffffffffffffffffffffffffffffffff16815260200160028201548152602001600382015481526020016004820154815260200160058201548152602001600682015481526020016007820160009054906101000a900460ff1615151515815250509050919050565b3373ffffffffffffffffffffffffffffffffffffffff1660008054906101000a900473ffffffffffffffffffffffffffffffffffffffff1673ffffffffffffffffffffffffffffffffffffffff1614610a89576040517f08c379a0000000000000000000000000000000000000000000000000000000008152600401610a8090611155565b60405180910390fd5b80600a6000848152602001908152602001600020600301819055505050565b6000600c60008381526020019081526020016000205411610afe576040517f08c379a0000000000000000000000000000000000000000000000000000000008152600401610af590611195565b60405180910390fd5b60405180610100016040528060095481526020013373ffffffffffffffffffffffffffffffffffffffff1681526020014281526020016201518083610b439190611366565b42610b4e91906112df565b8152602001600c6000848152602001908152602001600020548152602001348152602001610b90600c6000858152602001908152602001600020548434610cdc565b815260200160011515815250600a600060095481526020019081526020016000206000820151816000015560208201518160010160006101000a81548173ffffffffffffffffffffffffffffffffffffffff021916908373ffffffffffffffffffffffffffffffffffffffff16021790555060408201518160020155606082015181600301556080820151816004015560a0820151816005015560c0820151816006015560e08201518160070160006101000a81548160ff021916908315150217905550905050600b60003373ffffffffffffffffffffffffffffffffffffffff1673ffffffffffffffffffffffffffffffffffffffff1681526020019081526020016000206009549080600181540180825580915050600190039060005260206000200160009091909190915055600160096000828254610cd291906112df565b9250508190555050565b60006127108285610ced9190611366565b610cf79190611335565b90509392505050565b60405180610100016040528060008152602001600073ffffffffffffffffffffffffffffffffffffffff16815260200160008152602001600081526020016000815260200160008152602001600081526020016000151581525090565b600081359050610d6c81611466565b92915050565b600081359050610d818161147d565b92915050565b600060208284031215610d9957600080fd5b6000610da784828501610d5d565b91505092915050565b60008060408385031215610dc357600080fd5b6000610dd185828601610d5d565b9250506020610de285828601610d72565b9150509250929050565b600060208284031215610dfe57600080fd5b6000610e0c84828501610d72565b91505092915050565b60008060408385031215610e2857600080fd5b6000610e3685828601610d72565b9250506020610e4785828601610d72565b9150509250929050565b6000610e5d83836110e5565b60208301905092915050565b610e72816113c0565b82525050565b610e81816113c0565b82525050565b6000610e928261129a565b610e9c81856112b2565b9350610ea78361128a565b8060005b83811015610ed8578151610ebf8882610e51565b9750610eca836112a5565b925050600181019050610eab565b5085935050505092915050565b610eee816113d2565b82525050565b610efd816113d2565b82525050565b6000610f106025836112ce565b91507f4f6e6c79206f776e6572206d6179206d6f64696679205374616b696e6720706560008301527f72696f64730000000000000000000000000000000000000000000000000000006020830152604082019050919050565b6000610f76601a836112ce565b91507f506f736974696f6e20697320616c726561647920636c6f7365640000000000006000830152602082019050919050565b6000610fb66000836112c3565b9150600082019050919050565b6000610fd06011836112ce565b91507f6d617070696e67206e6f7420666f756e640000000000000000000000000000006000830152602082019050919050565b6000611010601d836112ce565b91507f4f6e6c79206f776e65722063616e20636c6f736520706f736974696f6e0000006000830152602082019050919050565b6101008201600082015161105a60008501826110e5565b50602082015161106d6020850182610e69565b50604082015161108060408501826110e5565b50606082015161109360608501826110e5565b5060808201516110a660808501826110e5565b5060a08201516110b960a08501826110e5565b5060c08201516110cc60c08501826110e5565b5060e08201516110df60e0850182610ee5565b50505050565b6110ee816113fe565b82525050565b6110fd816113fe565b82525050565b600061110e82610fa9565b9150819050919050565b600060208201905061112d6000830184610e78565b92915050565b6000602082019050818103600083015261114d8184610e87565b905092915050565b6000602082019050818103600083015261116e81610f03565b9050919050565b6000602082019050818103600083015261118e81610f69565b9050919050565b600060208201905081810360008301526111ae81610fc3565b9050919050565b600060208201905081810360008301526111ce81611003565b9050919050565b6000610100820190506111eb6000830184611043565b92915050565b600060208201905061120660008301846110f4565b92915050565b600061010082019050611222600083018b6110f4565b61122f602083018a610e78565b61123c60408301896110f4565b61124960608301886110f4565b61125660808301876110f4565b61126360a08301866110f4565b61127060c08301856110f4565b61127d60e0830184610ef4565b9998505050505050505050565b6000819050602082019050919050565b600081519050919050565b6000602082019050919050565b600082825260208201905092915050565b600081905092915050565b600082825260208201905092915050565b60006112ea826113fe565b91506112f5836113fe565b9250827fffffffffffffffffffffffffffffffffffffffffffffffffffffffffffffffff0382111561132a57611329611408565b5b828201905092915050565b6000611340826113fe565b915061134b836113fe565b92508261135b5761135a611437565b5b828204905092915050565b6000611371826113fe565b915061137c836113fe565b9250817fffffffffffffffffffffffffffffffffffffffffffffffffffffffffffffffff04831182151516156113b5576113b4611408565b5b828202905092915050565b60006113cb826113de565b9050919050565b60008115159050919050565b600073ffffffffffffffffffffffffffffffffffffffff82169050919050565b6000819050919050565b7f4e487b7100000000000000000000000000000000000000000000000000000000600052601160045260246000fd5b7f4e487b7100000000000000000000000000000000000000000000000000000000600052601260045260246000fd5b61146f816113c0565b811461147a57600080fd5b50565b611486816113fe565b811461149157600080fd5b5056fea2646970667358221220ebe62c1ea9b70edfc37d359e9eccc02515dc93ffc603948eef979066ca6346c864736f6c63430008000033",
  "linkReferences": {},
  "deployedLinkReferences": {}
}