{
  "_format": "hh-sol-artifact-1",
  "contractName": "Bank",
  "sourceName": "contracts/Bank.sol",
  "abi": [
    {
      "inputs": [],
      "stateMutability": "nonpayable",
      "type": "constructor"
    },
    {
      "inputs": [
        {
          "internalType": "address",
          "name": "",
          "type": "address"
        },
        {
          "internalType": "bytes32",
          "name": "",
          "type": "bytes32"
        }
      ],
      "name": "balances",
      "outputs": [
        {
          "internalType": "uint256",
          "name": "",
          "type": "uint256"
        }
      ],
      "stateMutability": "view",
      "type": "function"
    },
    {
      "inputs": [
        {
          "internalType": "uint256",
          "name": "amount",
          "type": "uint256"
        },
        {
          "internalType": "bytes32",
          "name": "symbol",
          "type": "bytes32"
        }
      ],
      "name": "depositTokens",
      "outputs": [],
      "stateMutability": "nonpayable",
      "type": "function"
    },
    {
      "inputs": [
        {
          "internalType": "bytes32",
          "name": "symbol",
          "type": "bytes32"
        }
      ],
      "name": "getTokenBalance",
      "outputs": [
        {
          "internalType": "uint256",
          "name": "",
          "type": "uint256"
        }
      ],
      "stateMutability": "view",
      "type": "function"
    },
    {
      "inputs": [],
      "name": "getWhitelistedSymbols",
      "outputs": [
        {
          "internalType": "bytes32[]",
          "name": "",
          "type": "bytes32[]"
        }
      ],
      "stateMutability": "view",
      "type": "function"
    },
    {
      "inputs": [
        {
          "internalType": "bytes32",
          "name": "symbol",
          "type": "bytes32"
        }
      ],
      "name": "getWhitelistedTokenAddress",
      "outputs": [
        {
          "internalType": "address",
          "name": "",
          "type": "address"
        }
      ],
      "stateMutability": "view",
      "type": "function"
    },
    {
      "inputs": [
        {
          "internalType": "bytes32",
          "name": "symbol",
          "type": "bytes32"
        },
        {
          "internalType": "address",
          "name": "tokenAddress",
          "type": "address"
        }
      ],
      "name": "whitelistToken",
      "outputs": [],
      "stateMutability": "nonpayable",
      "type": "function"
    },
    {
      "inputs": [
        {
          "internalType": "uint256",
          "name": "",
          "type": "uint256"
        }
      ],
      "name": "whitelistedSymbols",
      "outputs": [
        {
          "internalType": "bytes32",
          "name": "",
          "type": "bytes32"
        }
      ],
      "stateMutability": "view",
      "type": "function"
    },
    {
      "inputs": [
        {
          "internalType": "bytes32",
          "name": "",
          "type": "bytes32"
        }
      ],
      "name": "whitelistedTokens",
      "outputs": [
        {
          "internalType": "address",
          "name": "",
          "type": "address"
        }
      ],
      "stateMutability": "view",
      "type": "function"
    },
    {
      "inputs": [
        {
          "internalType": "uint256",
          "name": "amount",
          "type": "uint256"
        }
      ],
      "name": "withdrawEther",
      "outputs": [],
      "stateMutability": "nonpayable",
      "type": "function"
    },
    {
      "inputs": [
        {
          "internalType": "uint256",
          "name": "amount",
          "type": "uint256"
        },
        {
          "internalType": "bytes32",
          "name": "symbol",
          "type": "bytes32"
        }
      ],
      "name": "withdrawTokens",
      "outputs": [],
      "stateMutability": "nonpayable",
      "type": "function"
    },
    {
      "stateMutability": "payable",
      "type": "receive"
    }
  ],
  "bytecode": "0x608060405234801561001057600080fd5b50336000806101000a81548173ffffffffffffffffffffffffffffffffffffffff021916908373ffffffffffffffffffffffffffffffffffffffff16021790555061105d806100606000396000f3fe6080604052600436106100955760003560e01c806388db6ac61161005957806388db6ac61461021f5780638f97994b1461025c578063aa3d9a1514610285578063d15b223e146102c2578063e8812788146102eb57610123565b8063069fdaae146101285780631f14df69146101515780633bed33ce1461018e5780634762b976146101b75780634b1e4aa5146101f457610123565b366101235734600360003373ffffffffffffffffffffffffffffffffffffffff1673ffffffffffffffffffffffffffffffffffffffff16815260200190815260200160002060007f45746800000000000000000000000000000000000000000000000000000000008152602001908152602001600020600082825461011a9190610a6c565b92505081905550005b600080fd5b34801561013457600080fd5b5061014f600480360381019061014a9190610b5b565b610328565b005b34801561015d57600080fd5b5061017860048036038101906101739190610b9b565b610435565b6040516101859190610bea565b60405180910390f35b34801561019a57600080fd5b506101b560048036038101906101b09190610c31565b61045a565b005b3480156101c357600080fd5b506101de60048036038101906101d99190610c31565b610600565b6040516101eb9190610c6d565b60405180910390f35b34801561020057600080fd5b50610209610624565b6040516102169190610d46565b60405180910390f35b34801561022b57600080fd5b5061024660048036038101906102419190610d68565b61067c565b6040516102539190610bea565b60405180910390f35b34801561026857600080fd5b50610283600480360381019061027e9190610d95565b6106d6565b005b34801561029157600080fd5b506102ac60048036038101906102a79190610d68565b610895565b6040516102b99190610de4565b60405180910390f35b3480156102ce57600080fd5b506102e960048036038101906102e49190610d95565b6108c8565b005b3480156102f757600080fd5b50610312600480360381019061030d9190610d68565b6109f6565b60405161031f9190610de4565b60405180910390f35b60008054906101000a900473ffffffffffffffffffffffffffffffffffffffff1673ffffffffffffffffffffffffffffffffffffffff163373ffffffffffffffffffffffffffffffffffffffff16146103b6576040517f08c379a00000000000000000000000000000000000000000000000000000000081526004016103ad90610e5c565b60405180910390fd5b6001829080600181540180825580915050600190039060005260206000200160009091909190915055806002600084815260200190815260200160002060006101000a81548173ffffffffffffffffffffffffffffffffffffffff021916908373ffffffffffffffffffffffffffffffffffffffff1602179055505050565b6003602052816000526040600020602052806000526040600020600091509150505481565b80600360003373ffffffffffffffffffffffffffffffffffffffff1673ffffffffffffffffffffffffffffffffffffffff16815260200190815260200160002060007f4574680000000000000000000000000000000000000000000000000000000000815260200190815260200160002054101561050d576040517f08c379a000000000000000000000000000000000000000000000000000000000815260040161050490610ec8565b60405180910390fd5b80600360003373ffffffffffffffffffffffffffffffffffffffff1673ffffffffffffffffffffffffffffffffffffffff16815260200190815260200160002060007f45746800000000000000000000000000000000000000000000000000000000008152602001908152602001600020600082825461058d9190610ee8565b925050819055503373ffffffffffffffffffffffffffffffffffffffff16816040516105b890610f4d565b60006040518083038185875af1925050503d80600081146105f5576040519150601f19603f3d011682016040523d82523d6000602084013e6105fa565b606091505b50505050565b6001818154811061061057600080fd5b906000526020600020016000915090505481565b6060600180548060200260200160405190810160405280929190818152602001828054801561067257602002820191906000526020600020905b81548152602001906001019080831161065e575b5050505050905090565b6000600360003373ffffffffffffffffffffffffffffffffffffffff1673ffffffffffffffffffffffffffffffffffffffff1681526020019081526020016000206000838152602001908152602001600020549050919050565b81600360003373ffffffffffffffffffffffffffffffffffffffff1673ffffffffffffffffffffffffffffffffffffffff1681526020019081526020016000206000838152602001908152602001600020541015610769576040517f08c379a000000000000000000000000000000000000000000000000000000000815260040161076090610ec8565b60405180910390fd5b81600360003373ffffffffffffffffffffffffffffffffffffffff1673ffffffffffffffffffffffffffffffffffffffff168152602001908152602001600020600083815260200190815260200160002060008282546107c99190610ee8565b925050819055506002600082815260200190815260200160002060009054906101000a900473ffffffffffffffffffffffffffffffffffffffff1673ffffffffffffffffffffffffffffffffffffffff1663a9059cbb33846040518363ffffffff1660e01b815260040161083e929190610f62565b602060405180830381600087803b15801561085857600080fd5b505af115801561086c573d6000803e3d6000fd5b505050506040513d601f19601f820116820180604052508101906108909190610fc3565b505050565b60026020528060005260406000206000915054906101000a900473ffffffffffffffffffffffffffffffffffffffff1681565b81600360003373ffffffffffffffffffffffffffffffffffffffff1673ffffffffffffffffffffffffffffffffffffffff168152602001908152602001600020600083815260200190815260200160002060008282546109289190610a6c565b925050819055506002600082815260200190815260200160002060009054906101000a900473ffffffffffffffffffffffffffffffffffffffff1673ffffffffffffffffffffffffffffffffffffffff166323b872dd3330856040518463ffffffff1660e01b815260040161099f93929190610ff0565b602060405180830381600087803b1580156109b957600080fd5b505af11580156109cd573d6000803e3d6000fd5b505050506040513d601f19601f820116820180604052508101906109f19190610fc3565b505050565b60006002600083815260200190815260200160002060009054906101000a900473ffffffffffffffffffffffffffffffffffffffff169050919050565b6000819050919050565b7f4e487b7100000000000000000000000000000000000000000000000000000000600052601160045260246000fd5b6000610a7782610a33565b9150610a8283610a33565b9250827fffffffffffffffffffffffffffffffffffffffffffffffffffffffffffffffff03821115610ab757610ab6610a3d565b5b828201905092915050565b600080fd5b6000819050919050565b610ada81610ac7565b8114610ae557600080fd5b50565b600081359050610af781610ad1565b92915050565b600073ffffffffffffffffffffffffffffffffffffffff82169050919050565b6000610b2882610afd565b9050919050565b610b3881610b1d565b8114610b4357600080fd5b50565b600081359050610b5581610b2f565b92915050565b60008060408385031215610b7257610b71610ac2565b5b6000610b8085828601610ae8565b9250506020610b9185828601610b46565b9150509250929050565b60008060408385031215610bb257610bb1610ac2565b5b6000610bc085828601610b46565b9250506020610bd185828601610ae8565b9150509250929050565b610be481610a33565b82525050565b6000602082019050610bff6000830184610bdb565b92915050565b610c0e81610a33565b8114610c1957600080fd5b50565b600081359050610c2b81610c05565b92915050565b600060208284031215610c4757610c46610ac2565b5b6000610c5584828501610c1c565b91505092915050565b610c6781610ac7565b82525050565b6000602082019050610c826000830184610c5e565b92915050565b600081519050919050565b600082825260208201905092915050565b6000819050602082019050919050565b610cbd81610ac7565b82525050565b6000610ccf8383610cb4565b60208301905092915050565b6000602082019050919050565b6000610cf382610c88565b610cfd8185610c93565b9350610d0883610ca4565b8060005b83811015610d39578151610d208882610cc3565b9750610d2b83610cdb565b925050600181019050610d0c565b5085935050505092915050565b60006020820190508181036000830152610d608184610ce8565b905092915050565b600060208284031215610d7e57610d7d610ac2565b5b6000610d8c84828501610ae8565b91505092915050565b60008060408385031215610dac57610dab610ac2565b5b6000610dba85828601610c1c565b9250506020610dcb85828601610ae8565b9150509250929050565b610dde81610b1d565b82525050565b6000602082019050610df96000830184610dd5565b92915050565b600082825260208201905092915050565b7f546869732066756e6374696f6e206973206e6f74207075626c69632100000000600082015250565b6000610e46601c83610dff565b9150610e5182610e10565b602082019050919050565b60006020820190508181036000830152610e7581610e39565b9050919050565b7f496e73756666696369656e742066756e64730000000000000000000000000000600082015250565b6000610eb2601283610dff565b9150610ebd82610e7c565b602082019050919050565b60006020820190508181036000830152610ee181610ea5565b9050919050565b6000610ef382610a33565b9150610efe83610a33565b925082821015610f1157610f10610a3d565b5b828203905092915050565b600081905092915050565b50565b6000610f37600083610f1c565b9150610f4282610f27565b600082019050919050565b6000610f5882610f2a565b9150819050919050565b6000604082019050610f776000830185610dd5565b610f846020830184610bdb565b9392505050565b60008115159050919050565b610fa081610f8b565b8114610fab57600080fd5b50565b600081519050610fbd81610f97565b92915050565b600060208284031215610fd957610fd8610ac2565b5b6000610fe784828501610fae565b91505092915050565b60006060820190506110056000830186610dd5565b6110126020830185610dd5565b61101f6040830184610bdb565b94935050505056fea264697066735822122032358f5797e1d9019c2d13467d85b74af5a0e3e587c793454542d9023d331aaf64736f6c63430008090033",
  "linkReferences": {},
  "deployedLinkReferences": {}
}